:100000001DC037C04CC135C034C0FFC032C031C084
:1000100030C02FC02EC02DC02CC02BC02AC0000065
:100020000000370000000000380001030000040059
:1000300002020202020201020408102011241FBE63
:10004000CFE5D2E0DEBFCDBF10E0A0E6B0E0EAE54C
:10005000F8E002C005900D92AE36B107D9F720E066
:10006000AEE6B0E001C01D92A239B207E1F766D159
:10007000F2C3C6CF3FB7F894809174009091750099
:10008000A0917600B091770022B708B601FE05C0B6
:100090002F3F19F00196A11DB11D3FBFBA2FA92F07
:1000A000982F8827BC01CD01620F711D811D911D04
:1000B00043E0660F771F881F991F4A95D1F708956F
:1000C00090E0FC01E65DFF4F3491FC01EA5CFF4FDC
:1000D0002491FC01E05DFF4FE491EE23B9F033235E
:1000E00029F03130A1F48AB58F778ABDF0E0EE0FA8
:1000F000FF1FEC5DFF4FA591B4918FB7611118C040
:10010000F894EC9120952E232C938FBF08953230D4
:1001100019F48AB58F7DE9CF333021F480B78F7D14
:1001200080BFE4CF343011F78CB58F7D8CBDDECF2E
:10013000F894EC912E2BE8CFCF93DF9390E0FC0165
:10014000EA5CFF4F2491805D9F4FFC0184918823DE
:10015000D1F090E0880F991FFC01E25EFF4FA5915E
:10016000B491FC01EC5DFF4FC591D491623071F404
:100170009FB7F8943C91822F809583238C93E881DC
:100180002E2B28839FBFDF91CF9108958FB7F894CE
:10019000EC912E2B2C938FBFF6CF1F93CF93DF9331
:1001A000182FEB0161E0C8DF209731F460E0812F68
:1001B000DF91CF911F9184CFE12FF0E0E65DFF4FFB
:1001C000E491E13041F48AB580688ABDC9BDDF9110
:1001D000CF911F910895E23029F48AB580628ABDDB
:1001E000C8BDF5CFE33029F480B7806280BFCEBDB3
:1001F000EECFE43029F48CB580628CBDCBBDE7CF67
:10020000C038D1059CF261E0D2CF1F920F920FB699
:100210000F9211242F933F938F939F93AF93BF938C
:100220008091780090917900A0917A00B0917B0044
:100230003091730026E0230F2D3768F129E8230F52
:100240000396A11DB11D20937300809378009093B5
:100250007900A0937A00B0937B0080917400909114
:100260007500A0917600B09177000196A11DB11D97
:100270008093740090937500A0937600B0937700FC
:10028000BF91AF919F918F913F912F910F900FBE92
:100290000F901F9018950296A11DB11DD4CF1F92EB
:1002A0000F920FB60F9211240F931F932F933F932A
:1002B0004F935F936F937F938F939F93AF93BF936E
:1002C000EF93FF93D7DEB39927C0209172002223CA
:1002D00019F100916E0010916F0020917000309123
:1002E0007100601B710B7093830060938200109209
:1002F0007200FF91EF91BF91AF919F918F917F918C
:100300006F915F914F913F912F911F910F910F909E
:100310000FBE0F901F901895B39BEBCF20917200EA
:100320002111E7CF60936E0070936F00809370008F
:100330009093710081E080937200DBCF83E08ABDEF
:1003400083BF789489B7826089BF80E48CBD8FEFCA
:100350008DBD87EC80BF86E886B962E083E0ECDE85
:1003600062E084E0E9DE61E080E0E6DE61E081E019
:10037000E3DE70E060E080E010DF70E060E081E0EC
:100380000CDF61E082E0D8DE04E810E07801D0E024
:10039000C0E0CE01BBD1F70181937F012196CE3021
:1003A000D105B9F780918E0090918F00A0919000B7
:1003B000B091910080339144AB4AB105B9F180E42A
:1003C00096E0909385008093840084EF91E0909371
:1003D00087008093860090938900809388008EE147
:1003E00080938A0084E680938B0080938C0085E064
:1003F00080938D0080E391E4ABEAB0E080938E00BF
:1004000090938F00A0939000B0939100D0E0C0E053
:10041000F801F1908F01CE0179D1F81619F06F2D06
:10042000CE017CD12196CE30D10591F78091840008
:100430009091850020918A0030E0AC01420F531F5B
:100440005093650040936400AC01421B530B5093E2
:100450006700409366002091860030918700280F46
:10046000391F309361002093600020918800309103
:100470008900821B930B90936300809362008091AC
:100480008D0090E0019690936B0080936A00F89441
:100490008BB780628BBFAB9A789494E1892E912CB4
:1004A00028EEA22E23E0B22E20918200309183000C
:1004B00080918D0060916C0070916D0090E093D1FF
:1004C000820F931F60916A0070916B009DD17093B1
:1004D0006D0060936C008FB7F89440917800509154
:1004E000790060917A0070917B008FBF80916800E5
:1004F00090916900449724F490926900809268007A
:10050000B499E7C080917E0090917F00A091800017
:10051000B09181008A019B01081B190B2A0B3B0B30
:100520008091680090916900092E000CAA0BBB0B0A
:1005300080179107A207B307C0F440937E00509341
:100540007F00609380007093810061E080917C0067
:1005500090917D00892B09F060E0862F90E09093C8
:100560007D0080937C0082E0ABDDC0916C00D09177
:100570006D000091660010916700E0906400F090BB
:1005800065000C171D071CF4CE15DF051CF0CA30E2
:10059000D10504F570E060E080E0FFDD70E060E030
:1005A00081E0FBDDB0926900A092680063DD6B0121
:1005B00082E3482E512C612C712C5CDD6C197D0975
:1005C000683E734008F49BC04114510461047104F7
:1005D00009F08BC0C017D107F4F570E060E080E04F
:1005E000DCDD4090620050906300CE0184199509D3
:1005F0008A569F4F9093690080936800052C000CE9
:1006000066087708BE010D2E000C880B990B641943
:1006100075098609970922E03FEF4FEF5FEF8CD015
:10062000012E000C220B330BA90198012419350966
:10063000460957099AD022503F4F4F4F5F4FB9019B
:100640002F3F310514F06EEF70E077FF02C070E0CD
:1006500060E081E0A2DDEC16FD060CF025CF70E035
:1006600060E081E09ADD0091600010916100C801B6
:100670008C1B9D0B8A569F4F909369008093680056
:100680006701FF0CEE08FF08BE01DD0F880B990B18
:100690006C197D098E099F092EEF30E040E050E093
:1006A0004BD0012E000C220B330BA90198012C1901
:1006B0003D094E095F0959D0B9012F3F310514F0AA
:1006C0006EEF70E077FF02C070E060E080E065DD13
:1006D000EBCE70E060E080E060DD70E060E081E043
:1006E0005CDD61E082E0ECDCDFCE51E0451A5108D0
:1006F0006108710888E1C81A8CEFD80A5ECF4114EE
:1007000051046104710409F058CF64CFE199FECF20
:100710009FBB8EBBE09A99278DB30895262FE19950
:10072000FECF1CBA9FBB8EBB2DBB0FB6F894E29ACE
:10073000E19A0FBE01960895EE27FF27AA27BB274F
:1007400008C0A20FB31FE41FF51F220F331F441F61
:10075000551F969587957795679598F37040A9F7FB
:10076000009799F7BD01CF010895052E97FB16F468
:1007700000940FD057FD05D014D007FC02D046F4EA
:1007800008C050954095309521953F4F4F4F5F4F92
:10079000089590958095709561957F4F8F4F9F4FED
:1007A0000895A1E21A2EAA1BBB1BFD010DC0AA1FB2
:1007B000BB1FEE1FFF1FA217B307E407F50720F0CA
:1007C000A21BB30BE40BF50B661F771F881F991F45
:1007D0001A9469F760957095809590959B01AC018E
:1007E000BD01CF0108950024552704C0080E591FEC
:1007F000880F991F009729F076956795B8F37105D2
:10080000B9F7802D952F089597FB072E16F40094C5
:1008100006D077FD08D00BD007FC05D03EF49095AC
:1008200081959F4F0895709561957F4F0895AA1BFC
:10083000BB1B51E107C0AA1FBB1FA617B70710F0CB
:10084000A61BB70B881F991F5A95A9F780959095FD
:0A085000BC01CD010895F894FFCF1C
:0E085A00D007E8030E06AA0558020600DC05CA
:00000001FF
